:020000040800F2
:1000000000500020A1260008A5130008A71300082F
:10001000A9130008AB130008AD130008000000008E
:10002000000000000000000000000000AF13000806
:10003000B113000800000000B3130008B513000856
:10004000E9260008E9260008E9260008E926000854
:10005000E9260008E9260008E9260008E926000844
:10006000E9260008E9260008E9260008E926000834
:10007000E9260008E9260008E9260008E926000824
:10008000E9260008E9260008E9260008E926000814
:10009000E9260008E9260008E9260008E926000804
:1000A000E9260008E9260008E9260008E9260008F4
:1000B000E9260008E9260008E9260008E9260008E4
:1000C000E9260008E9260008E9260008E9260008D4
:1000D000E9260008E9260008E9260008E9260008C4
:1000E000E9260008E9260008E926000800000000CB
:1000F0000000000000000000000000000000000000
:0C01000000000000000000005FF808F1A3
:10010C00EC46A0E8F05F4FF000007047B0E8F05FFD
:10011C00E546080008BF0120704700BF10F8012B0E
:10012C0011F8013B012A28BF9A42F7D0D01A704728
:10013C0000F1340191E838009C46A6464CF8045D69
:10014C0090E8FF0FE54600BD90EC210B704700BF17
:10015C0080EC210B704700BF90EC200B704700BF68
:10016C0080EC200B704700BFD0EC200B704700BF19
:10017C00C0EC200B704700BFF0EC0201F0EC021158
:10018C00F0EC0221F0EC0231F0EC0241F0EC025107
:10019C00F0EC0261F0EC0271F0EC0281F0EC0291F7
:1001AC00F0EC02A1F0EC02B1F0EC02C1F0EC02D1E7
:1001BC00F0EC02E1F0EC02F1704700BFE0EC020160
:1001CC00E0EC0211E0EC0221E0EC0231E0EC024147
:1001DC00E0EC0251E0EC0261E0EC0271E0EC028137
:1001EC00E0EC0291E0EC02A1E0EC02B1E0EC02C127
:1001FC00E0EC02D1E0EC02E1E0EC02F1704700BF70
:10020C00B0FC0181B0FC0191B0FC01A1B0FC01B1CA
:10021C00704700BFA0FC0181A0FC0191A0FC01A1D2
:10022C00A0FC01B1704700BFEC4600B52DE90050B1
:10023C002DE9FF1F4FF000032DE90C0001A902F07E
:10024C0025FDDDF840E012B0704700BFEC4600B56C
:10025C002DE900502DE9FF1F4FF000032DE90C0094
:10026C0001A902F053FDDDF840E012B0704700BF69
:10027C00EC4600B52DE900502DE9FF1F4FF00003AF
:10028C002DE90C0001A902F063FDDDF840E012B08D
:10029C00704700BFEC4600B52DE900502DE9FF1F5B
:1002AC004FF000032DE90C0001AB02F023FDDDF84B
:1002BC0040E012B0704700BFEC4600B52DE900508D
:1002CC002DE9FF1F4FF000032DE90C0001AA02F0ED
:1002DC0099FDDDF840E012B0704700BF0348044BB5
:1002EC00834202D0034B03B11847704760000020D3
:1002FC0060000020000000000548064B1B1AD90FB7
:10030C0001EBA301491002D0034B03B1184770470E
:10031C0060000020600000200000000010B5064CBA
:10032C00237843B9FFF7DAFF044B13B10448AFF35A
:10033C0000800123237010BD60000020000000002D
:10034C000838000808B5054B1BB105490548AFF343
:10035C000080BDE80840FFF7CFBF00BF00000000E1
:10036C00640000200838000810B582B006238DF810
:10037C000730012001F006F801210DF1070000F013
:10038C00E3FF0446002000F0FDFF204602B010BD44
:10039C0010B582B00523ADF80430012000F0F2FF57
:1003AC000222694601A800F0DBFF0446002000F0A1
:1003BC00E9FF24B99DF80140640004F002042046D2
:1003CC0002B010BD10B584B0902302930023ADF899
:1003DC000C30FFF7DDFF044610B1204604B010BD11
:1003EC00012000F0CFFF0622694602A800F0B8FFFA
:1003FC000446002000F0C6FF002CEED19DF804301E
:10040C00EF2B05D19DF80530172BE6D00124E4E73E
:10041C000124E2E72DE9F04182B0002A41D00446E4
:10042C000D461746B0F1807F3DD2B2F5807F3FD8A4
:10043C008318B3F1807F3DD8FFF7AAFF0646FFF77C
:10044C0093FF064316F0FF062ED13E1D304602F0F8
:10045C0079F9804604F47F4343EA0443C4F3074428
:10046C00234301930346022203F8012BBDF8041029
:10047C009DF80620A0F801109A703A4629460430DF
:10048C0002F052F9012000F07DFFB1B2404600F0BD
:10049C005BFF0646002000F075FF404602F05AF95B
:1004AC0002E0052600E00526304602B0BDE8F081EA
:1004BC000526F9E70526F7E72DE9F04383B0002A76
:1004CC003ED006460F469046FFF762FF0446C0BB7F
:1004DC0008F10404204602F035F90546204602F0E6
:1004EC0031F981462946032301F8013B06F47F4389
:1004FC0043EA0642C6F3074313430193BDF80420B5
:10050C009DF80630A5F801208B70012000F03AFF11
:10051C00A2B24946284600F023FF0446002000F012
:10052C0031FF34B1284602F015F9484602F012F9B1
:10053C0007E0424609F10401384602F0F5F8F1E70C
:10054C000524204603B0BDE8F08330B583B00546E2
:10055C00FFF71EFF0446FFF707FF44EA000313F002
:10056C00FF0402D0204603B030BD2023019305F4D4
:10057C007F4343EA0543C5F307452B430093BDF87E
:10058C0000209DF80230ADF805208DF807300120D1
:10059C0000F0F8FE04210DEB010000F0D5FE04463E
:1005AC00002000F0EFFEDDE770B50646012402E006
:1005BC0004EB84046400B6FBF4F3092BF8D8B6FB07
:1005CC00F4F20A4DA5FB0213DB0803EB8303A2EB49
:1005DC004303DBB203F13000C0B200F0A1FC2346B0
:1005EC00A5FB0445EC08092BE9D870BDCDCCCCCCCF
:1005FC0010B5041E03DB2046FFF7D6FF10BD2D20DF
:10060C0000F08EFC6442F6E738B50546082912D88E
:10061C000C4602E0373000F083FC74B1013CE4B2CC
:10062C00A00025FA00F000F00F000928F2DC3030B1
:10063C0000F076FCF1E70824EFE738BD10B504466E
:10064C000078A0F12003DBB25E2B0ED90D280FD061
:10065C000A2814D05C2000F063FC782000F060FCC9
:10066C0002212078FFF7D0FF10BD00F059FCFBE70A
:10067C005C2000F055FC722000F052FCF4E75C208A
:10068C0000F04EFC6E2000F04BFCEDE710B504467C
:10069C0020B906E02046FFF7D1FF01342378002B68
:1006AC00F8D110BD10B50C46FFF7F0FF3A2000F062
:1006BC0037FC2046FFF79CFF3A2000F031FC044B3E
:1006CC005868FFF7E3FF3A2000F02AFC10BD00BF8A
:1006DC008000002008B50146054B1868FFF7E2FFC3
:1006EC000448FFF7D3FF3A2000F01AFC08BD00BF06
:1006FC008000002008390008E8B138B504460E48DF
:10070C00FFF7C4FF0D4B9B688BB10D48FFF7BEFF85
:10071C000A4DA868FFF7BAFFEB682BB10948FFF741
:10072C00B5FFE868FFF7B2FF0348FFF7AFFF2046BD
:10073C00FFF7ACFF38BD704704390008800000207B
:10074C002C3800082038000888421BD020B51D46E4
:10075C0010B161B1002020BD1046FFF7BBFF0A4865
:10076C00FFF794FF2846FFF7C7FF0120F3E7104679
:10077C00FFF7B0FF0548FFF789FF2846FFF7BCFFDE
:10078C000120E8E7002070478C380008703800081A
:10079C0038B505460C4611F0100F2FD0912902D018
:1007AC00FFF726FF38BD272000F0BAFBA5F1200388
:1007BC005E2B11D90D2D13D00A2D18D05C2000F012
:1007CC00AFFB782000F0ACFB02212846FFF71CFFA2
:1007DC00272000F0A5FBE5E7E8B200F0A1FBF7E766
:1007EC005C2000F09DFB722000F09AFBF0E75C208F
:1007FC0000F096FB6E2000F093FBE9E711F0200F60
:10080C0002D0FFF7D1FECDE7302000F089FB782035
:10081C0000F086FB04F00F0149002846FFF7F4FEB8
:10082C00C0E70000F8B50C469DF818701449096A29
:10083C0039B905461646124A526A12B9A04204D179
:10084C00F8BD01210F48FFF761FC1846FFF742FF86
:10085C000D48FFF71BFF39462846FFF799FF0B4859
:10086C00FFF714FF39462046FFF792FF3046FFF79B
:10087C0043FF0348012101622830FFF747FC00BF0A
:10088C0080000020A8000020F8380008F03800088C
:10089C002DE9F04F83B0009201939DF834B09DF890
:1008AC0038A0404B1B6A8BB907460C460BF00F0661
:1008BC003C4B5B6A53B9009B63B188426FD0019B80
:1008CC000C9AFFF741FFA0B9009D23E001213648A7
:1008DC00FFF71CFC0C98FFF7FDFE3448FFF7D6FE23
:1008EC000198FFF709FF2F48012101622830FFF71B
:1008FC000DFC2C48012101622830FFF707FC97F909
:10090C00009094F900803346C14517D1BAF1010F1C
:10091C0043D01C44002D42D0013D012EEFD0022EBD
:10092C0006D0D7F80090D4F8008004231E46EBE7DD
:10093C00B7F90090B4F900803346E5E71BF0200FBF
:10094C0009D0032E07D8F6000123B340013B09EA76
:10095C00030908EA03080C98FFF7BCFE1448FFF7DC
:10096C0095FE009B581B0138FFF71EFE1148FFF740
:10097C008DFE59464846FFF70BFF0F48FFF786FEE2
:10098C0059464046FFF704FF0198FFF7B5FE0548AE
:10099C00012101622830FFF7B9FB1F44B9E703B00E
:1009AC00BDE8F08F80000020A8000020AC380008C3
:1009BC00E4380008F8380008F0380008064B1860D6
:1009CC0000225A601A615A619A61DA611A625A629B
:1009DC009A60DA60704700BF8000002010B50D20CF
:1009EC0000F09EFA0A2000F09BFA1A48FFF74EFE20
:1009FC000D2000F095FA0A2000F092FA164C60696E
:100A0C00FFF7F6FD1548FFF741FEA069FFF7F0FD73
:100A1C001348FFF73BFEE069FFF7EAFD1148FFF7CB
:100A2C0035FE0D2000F07CFA0A2000F079FAA3695B
:100A3C005BB90D48FFF72AFE0D2000F071FA0A2071
:100A4C0000F06EFA044B986910BD0848FFF71EFEC3
:100A5C00F2E700BF5838000880000020503800082A
:100A6C0044380008383800081839000808390008DC
:100A7C0010B504460948FFF709FE601CFFF794FD0A
:100A8C000748FFF703FE074B9868FFF78DFD0D2015
:100A9C0000F046FA0A2000F043FA10BD1C39000899
:100AAC002C3900087401002048B108B50B460146EA
:100ABC00184601F005FF003818BF012008BD0120C1
:100ACC007047000008B50146024BD868FFF7ECFFF1
:100ADC0008BD00BF7401002008B50146024B18691F
:100AEC00FFF7E2FF08BD00BF74010020014B00229C
:100AFC001A6070474801002009E0013B064A136068
:100B0C00064A52F8331002EBC30253680B60024BD7
:100B1C001B68002BF1DC7047480100204C010020C1
:100B2C00F8B57C4B00221A605A601A61DA60012217
:100B3C009A60904200F0E88006460F46154676E033
:100B4C007548FFF7A3FD0D2000F0EAF90A2000F02C
:100B5C00E7F90D2000F0E4F90A2000F0E1F96F4804
:100B6C00FFF794FD0D2000F0DBF90A2000F0D8F916
:100B7C000D2000F0D5F90A2000F0D2F96848FFF7F3
:100B8C0085FD0D2000F0CCF90A2000F0C9F965486C
:100B9C00FFF77CFD0D2000F0C3F90A2000F0C0F92E
:100BAC006148FFF773FD0D2000F0BAF90A2000F040
:100BBC00B7F95E48FFF76AFD0D2000F0B1F90A2085
:100BCC0000F0AEF95A48FFF761FD0D2000F0A8F9CE
:100BDC000A2000F0A5F95748FFF758FD0D2000F04A
:100BEC009FF90A2000F09CF95348FFF74FFD0D20A8
:100BFC0000F096F90A2000F093F90D2000F090F91E
:100C0C000A2000F08DF94D48FFF740FD0D2000F053
:100C1C0087F90A2000F084F90120F8BD48492046E4
:100C2C00FFF77CFA00BB3B4B01225A601544B542DE
:100C3C0068DA57F8254043492046FFF76FFA002839
:100C4C003FF47EAF40492046FFF768FA00283FF496
:100C5C0077AF3E492046FFF761FA0028DED12D4BD5
:100C6C0001221A601544E2E739492046FFF756FA8B
:100C7C0040B96B1C9E4249DD57F82320254B1A6165
:100C8C000235D4E733492046FFF748FA40B96B1CCC
:100C9C009E423DDD57F823201E4BDA600235C6E735
:100CAC002D492046FFF73AFA40BB1A4B02229A60B4
:100CBC006B1C9E4224DD07EB830457F8232012782B
:100CCC00303AD2B2092A01D91D46B0E70022114BA5
:100CDC009A600BE00F498B6803EB83035B008B601E
:100CEC002068805C303803448B60013223689B5C45
:100CFC00303BDBB2092BEDD9023598E7013596E78D
:100D0C001D4694E7002088E7002086E7012084E751
:100D1C00012082E77401002044390008643900087E
:100D2C0094390008A4390008EC390008343A00085A
:100D3C00783A0008BC3A0008F03A0008183B000862
:100D4C00603B0008343900083C3900085C3B000863
:100D5C00643B0008683B00086C3B000870B50D460E
:100D6C001646FFF7DDFEE0B9002405E00A2000F08E
:100D7C00D7F8FFF733FE01340A4B9B68A3420ED918
:100D8C002868FFF71BFE2046FFF772FEB047054BA5
:100D9C001B68002BEAD10D2000F0C2F8E6E7024BED
:100DAC00986970BD740100208000002008B5184BB4
:100DBC005B6A93B9164B1B6AF3B9164B1B68B3B13C
:100DCC001548FFF763FC1548FFF760FC0D2000F099
:100DDC00A7F80A2000F0A4F809E00D4AD369013302
:100DEC00D3610D2000F09CF80A2000F099F8084B14
:100DFC0000221A625A6208BD054A93690133936155
:100E0C000D2000F08DF80A2000F08AF8EFE700BF03
:100E1C008000002074010020703B0008103900088D
:100E2C0010B584B00190029103921C460798FFF70D
:100E3C0049FE00282AD00698FFF74EFE30B31B4B14
:100E4C00089A1A605C60099A1A61194B1B68FBB905
:100E5C00174B5B681BB3154C636901336361FFF778
:100E6C0045FE04F12800FFF74BF918B9019B984790
:100E7C00029B98470F48FFF743F908B9039B984723
:100E8C000C48FFF73DF970B1FFF790FF04B010BDAF
:100E9C002046FFF7FBFB054B00225A60DBE72E20B8
:100EAC0000F03EF8D7E7FFF727FEEDE780000020C3
:100EBC0074010020A800002008B500F0C1F808BD9E
:100ECC0010B586B000220292039204920592124B46
:100EDC00996941F004019961996901F0040100914B
:100EEC000099996941F0080199619B6903F0080325
:100EFC000193019B094C0121204601F03DFA01238D
:100F0C000293039304930223059302A9204601F054
:100F1C0025F906B010BD00BF00100240000C0140C6
:100F2C0000B583B08DF80700642301220DF1070191
:100F3C00024801F04FFB03B05DF804FB8801002070
:100F4C004FF0FF30704701207047FEE772B6FEE7A6
:100F5C0008B50D480D4B03604FF4827343600023BA
:100F6C008360C360036143614FF400728261C361AB
:100F7C000362436283620A23C36200F027FB00B959
:100F8C0008BDFFF7E3FF00BFD00100200030014097
:100F9C0008B50A480A4B03604FF4E1334360002361
:100FAC008360C36003610C2242618361C36101F001
:100FBC00E1FA00B908BDFFF7C9FF00BF88010020A6
:100FCC000038014000B591B02822002106A801F09C
:100FDC009DFC002301930293039304930593022336
:100FEC00069301230A9310230B9306A800F0A8FD87
:100FFC0068B90F230193002102910391049105918B
:10100C0001A800F0CFFF20B911B05DF804FBFFF789
:10101C009DFFFFF79BFF000008B500F057FDFFF7A1
:10102C00D1FFFFF74DFFFFF793FFFFF7B1FF034A27
:10103C0000210846FFF792FE08BD00BFC50E000850
:10104C0008B500F0F9F800F019F900F039F900F0E2
:10105C0059F908BD7047704700B583B0FFF7B2F976
:10106C00014614230093212300221046FFF7DAFBDC
:10107C0003B05DF804FB000010B584B055238DF867
:10108C000F3000238DF80E301548FFF75EFAFFF78E
:10109C007FF90228FBD001220DF10F011048FFF758
:1010AC00B9F90446FFF774F90228FBD001220DF1BF
:1010BC000E010B48FFF700FA44EA000114240094D7
:1010CC0032230022C9B21046FFF7ACFB0094332345
:1010DC0000229DF80E105520FFF7A4FB04B010BDA4
:1010EC0000F0FF0010B5ADF5047D4AF6552444948C
:1010FC00FC22002145A801F009FCADF88D41ADF8AA
:10110C000E42FFF745F90228FBD04FF4807244A938
:10111C001348FFF77FF90446FFF73AF90228FBD092
:10112C004FF4807204A90E48FFF7C6F944EA000197
:10113C001423009348230022C9B21046FFF772FB18
:10114C0001230293412301934923009300234FF47D
:10115C00807204A944A8FFF79BFB0DF5047D10BD1C
:10116C0000F1FF0030B5ADF5E05D85B04AF65523D2
:10117C00CDF8103E40F6FC5200210DF6146001F043
:10118C00C5FB40F6FE5200210DF6126001F0BEFBCD
:10119C004FF46062002104A801F0B8FB7D2306E047
:1011AC000DF56162BDF8101ED15201339BB2B3F53F
:1011BC00606FF5D30024254612E0FFF7E9F802280A
:1011CC00FBD04FF480720DF56163191904F57F00A3
:1011DC0000F57240FFF71EF9054604F58074A4B2C1
:1011EC00B4F5606FE9D3FFF7D3F80228FBD04FF4C6
:1011FC00606204A90F48FFF75FF945EA0001142368
:10120C00009364230022C9B21046FFF70BFB0123A5
:10121C000293412301936523009300234FF46062F2
:10122C0004A90DF56160FFF733FB0DF5E05D05B02A
:10123C0030BD00BF00F2FF0000B585B01D23039345
:10124C00074B0293074B0193074B0093074B084A3C
:10125C0008490948FFF7E4FD05B05DF804FB00BF41
:10126C009C3B0008D03B0008E43B0008743B0008A2
:10127C0063100008651000086110000800B585B007
:10128C0024230393074B0293074B0193074B0093C3
:10129C00074B084A08490948FFF7C2FD05B05DF83D
:1012AC0004FB00BF9C3B00082C3C0008E43B0008FE
:1012BC00F43B00086310000885100008611000085A
:1012CC0000B585B036230393074B0293074B01936C
:1012DC00074B0093074B084A08490948FFF7A0FD44
:1012EC0005B05DF804FB00BF9C3B0008803C000887
:1012FC00E43B0008503C000863100008F1100008A3
:10130C006110000800B585B04C230393074B029382
:10131C00074B0193074B0093074B084A08490948B0
:10132C00FFF77EFD05B05DF804FB00BF9C3B000899
:10133C00D83C0008E43B00089C3C00086310000803
:10134C00711100086110000808B50A464FF480734B
:10135C0001460248006800F094F908BD0000002026
:10136C0000B583B013464FF4807200920A460146D2
:10137C000348006800F061FA03B05DF804FB00BF9D
:10138C000000002008B580F001020121014800F0A6
:10139C00F3FF08BD000C0140FEE7FEE7FEE7FEE7A9
:1013AC00FEE770477047704708B500F0A1FB08BD19
:1013BC0082B00E4B9A6942F001029A619A6902F06E
:1013CC0001020092009ADA6942F08052DA61DB691C
:1013DC0003F080530193019B054A536823F0E063AB
:1013EC0043F00073536002B0704700BF001002401E
:1013FC000000014010B586B00023029303930493C0
:10140C0005930268164B9A4201D006B010BD03F545
:10141C0060439A6942F480529A619A6902F480524C
:10142C000092009A9A6942F004029A619B6903F057
:10143C0004030193019BA023029302230393032330
:10144C000593084C02A9204600F088FE4023029325
:10145C0000230393049302A9204600F07FFED4E7F7
:10146C00003001400008014010B586B00023029303
:10147C000393049305930268174B9A4201D006B06C
:10148C0010BD03F558439A6942F480429A619A69F7
:10149C0002F480420092009A9A6942F004029A6126
:1014AC009B6903F004030193019B4FF400730293B7
:1014BC000223039303230593084C02A9204600F052
:1014CC004DFE4FF48063029300230393049302A90F
:1014DC00204600F043FED2E70038014000080140EE
:1014EC002DE9F04782B00546884617461E4600F0A7
:1014FC000BFB0A9B1B1A03EB060900F005FB82464B
:10150C00284B1B68C3F3CB3309FB03F301932B6804
:10151C009C6838EA04040CBF01230023BB423DD075
:10152C00B6F1FF3FF3D000F0EFFAA0EB0A0048450C
:10153C0007D2019A02B14A46019B013B01939146A5
:10154C00E5E72A68536823F0E00353606B68B3F552
:10155C00827F0BD0AB6AB3F5005F14D0012385F802
:10156C005130002385F85030032018E0AB68B3F5F8
:10157C00004F02D0B3F5806FECD12A68136823F0CA
:10158C0040031360E6E72A68136823F400531360E2
:10159C002A68136843F400531360DFE7002002B09D
:1015AC00BDE8F0870C00002010B582B004460B4655
:1015BC00009200228021FFF793FF08B902B010BD02
:1015CC00636D43F0200363650320F7E7002856D0D2
:1015DC0010B50446436A33B94368B3F5827F05D02E
:1015EC000023C36102E00023036143610023A36273
:1015FC0094F85130002B3CD0022384F851302268EF
:10160C00136823F040031360636803F48273A268C9
:10161C0002F404421343E26802F4006213432269A9
:10162C0002F002021343626902F001021343A26941
:10163C0002F400721343E26902F038021343226A87
:10164C0002F080021343A26A02F400522168134391
:10165C000B60638B226803F0040353602268D36928
:10166C0023F40063D36100206065012384F85130BA
:10167C0010BD84F850302046FFF7BCFEBCE70120BB
:10168C0070472DE9F04383B01D4690F85030012B84
:10169C0000F0D180044688469146012380F85030F2
:1016AC0000F032FA074694F85160F6B2012E40F081
:1016BC00BA80B8F1000F00F0B780B9F1000F00F05C
:1016CC00B380032384F8513000236365C4F8308061
:1016DC00A4F83490A4F83690A363A387E3876364DB
:1016EC002364A368B3F5004F1ED023681A6812F068
:1016FC00400F03D11A6842F040021A60E368B3F558
:10170C00006F1CD0636813B1B9F1010F55D1226B76
:10171C00236812781A73236B01332363E38E9BB215
:10172C00013B9BB2E38648E02268136823F0400338
:10173C0013602268136843F480431360D5E7636831
:10174C0013B1B9F1010F15D1226B23681288DA603D
:10175C00236B02332363E38E9BB2013B9BB2E38684
:10176C0008E000F0D1F9C01BA84202D3B5F1FF3F4D
:10177C0015D1A5B1E38E9BB2002B3CD023689A689F
:10178C0012F0020FEDD0226B1288DA60236B023359
:10179C002363E38E9BB2013B9BB2E386EAE7012312
:1017AC0084F8513003263FE000F0AEF9C01BA8428C
:1017BC0002D3B5F1FF3F19D1C5B1E38E9BB2D3B1C2
:1017CC0023689A6812F0020FEED0226B12781A730B
:1017DC00236B01332363B4F836C01FFA8CFC0CF175
:1017EC00FF3C1FFA8CFCA4F836C0E6E7012384F812
:1017FC005130032618E03A4629462046FFF7D4FE1E
:10180C0008B120236365A36833B901932368DA68B0
:10181C0001929B680193019B636D2BB9012384F8A2
:10182C005130002600E00226002384F85030304668
:10183C0003B0BDE8F0830226F9E72DE9F04383B04D
:10184C001F460A9D90F85030012B00F0168104467B
:10185C0088469146012380F8503000F055F9064631
:10186C0094F85130DBB26268012B0AD0B2F5827F5A
:10187C0040F0F080A268002A40F0F380042B40F086
:10188C00F280B8F1000F00F0F080B9F1000F00F019
:10189C00EE80002F00F0ED8094F85130DBB2042B79
:1018AC0002D0052384F8513000236365C4F83890C6
:1018BC00E787A787C4F83080E786A786236463642C
:1018CC0023681A6812F0400F03D11A6842F04002E4
:1018DC001A60E368B3F5006F11D063680BB1012F88
:1018EC000BD1226B236812781A73236B0133236399
:1018FC00E38E9BB2013B9BB2E38601276EE06368EB
:10190C000BB1012F0BD1226B23681288DA60236B89
:10191C0002332363E38E9BB2013B9BB2E386012728
:10192C001BE023689A6812F0010F0ED0E28F92B27E
:10193C005AB1DA68A36B1A80A36B0233A363E38FEB
:10194C009BB2013B9BB2E387012700F0DDF8801BC3
:10195C00A84202D3B5F1FF3F1ED1E38E9BB21BB957
:10196C00E38F9BB2002B5CD023689A6812F0020FB5
:10197C00D7D0E28E92B2002AD3D0002FD1D0226BD6
:10198C001288DA60236B02332363E38E9BB2013B34
:10199C009BB2E3860027C4E7012384F8513003206F
:1019AC0059E023689A6812F0010F0ED0E28F92B2C0
:1019BC005AB1DA68A36B1A70A36B0133A363E38F7C
:1019CC009BB2013B9BB2E387012700F09DF8831B80
:1019DC00AB4202D3B5F1FF3F1ED1EDB1E38E9BB20A
:1019EC0013B9E38F9BB2E3B123689A6812F0020F2C
:1019FC00D7D0E28E92B2002AD3D0002FD1D0226B56
:101A0C0012781A73236B01332363E38E9BB2013B71
:101A1C009BB2E3860027C4E7012384F851300320EE
:101A2C0019E0324629462046FFF7BEFD70B9A3687F
:101A3C0033B901932368DA6801929B680193019B87
:101A4C00636DC3B9012384F8513004E0202363652E
:101A5C00012000E00220002384F8503003B0BDE8E0
:101A6C00F0830220F7E70220F5E70120F3E70120DD
:101A7C00F1E70120EFE70120EDE70220EEE700009F
:101A8C0010B504460E4B1A784FF47A73B3FBF2F38D
:101A9C000C4A1068B0FBF3F000F0CAFC68B90F2CCC
:101AAC0001D901200AE0002221464FF0FF3000F05E
:101ABC00AFFC054B1C60002000E0012010BD00BFF6
:101ACC00040000200C0000200800002008B5074A84
:101ADC00136843F010031360032000F087FC0F2001
:101AEC00FFF7CEFFFFF764FC002008BD002002408A
:101AFC00034A1168034B1B780B441360704700BFFB
:101B0C002802002004000020014B1868704700BF19
:101B1C002802002082B0084B1B68084AA2FB032352
:101B2C005B0A00FB03F3019300BF019B5A1E019259
:101B3C00002BF9D102B070470C000020D34D62107D
:101B4C00002800F0F18170B582B00446036813F0F0
:101B5C00010F2CD0994B5B6803F00C03042B1DD0A8
:101B6C00964B5B6803F00C03082B12D06368B3F53B
:101B7C00803F41D0002B55D103F1804303F5043352
:101B8C001A6822F480321A601A6822F480221A60D1
:101B9C0037E08A4B5B6813F4803FE7D0874B1B68B8
:101BAC0013F4003F03D06368002B00F0BF8123685F
:101BBC0013F0020F75D0814B5B6813F00C0F5FD0E4
:101BCC007E4B5B6803F00C03082B54D02369002B6D
:101BDC0000F08A807A4B01221A60FFF795FF0546C8
:101BEC00764B1B6813F0020F75D1FFF78DFF401B6E
:101BFC000228F5D903209EE1704A136843F4803320
:101C0C001360636843B3FFF77FFF05466B4B1B689C
:101C1C0013F4003FCBD1FFF777FF401B6428F5D9B5
:101C2C00032088E1B3F5A02F09D0644B1A6822F485
:101C3C0080321A601A6822F480221A60E1E703F1FC
:101C4C008043A3F53C331A6842F480221A601A6868
:101C5C0042F480321A60D4E7FFF756FF0546574B23
:101C6C001B6813F4003FA2D0FFF74EFF401B642803
:101C7C00F5D903205FE1514B5B6813F4803FA5D18C
:101C8C004E4B1B6813F0020F03D02369012B40F05D
:101C9C004F814A4A136823F0F803616943EAC10390
:101CAC001360236813F0080F33D0A369002B5CD0AA
:101CBC00434B0122C3F88024FFF726FF05463F4B18
:101CCC005B6A13F0020F21D1FFF71EFF401B0228A5
:101CDC00F5D903202FE1394A136823F0F803616921
:101CEC0043EAC1031360DCE7354B00221A60FFF7AF
:101CFC000BFF0546314B1B6813F0020FD1D0FFF7D9
:101D0C0003FF401B0228F5D9032014E10120FFF743
:101D1C0001FF236813F0040F00F09680274BDB695A
:101D2C0013F0805F34D1254BDA6942F08052DA61CE
:101D3C00DB6903F080530193019B0125214B1B6848
:101D4C0013F4807F26D0E368012B3DD0002B53D1B8
:101D5C0003F1804303F504331A6A22F001021A627C
:101D6C001A6A22F004021A6233E0154B0022C3F8FF
:101D7C008024FFF7C9FE0546104B5B6A13F0020F77
:101D8C00C7D0FFF7C1FE401B0228F5D90320D2E0D3
:101D9C000025D3E70B4A136843F480731360FFF7F5
:101DAC00B3FE0646074B1B6813F4807FCBD1FFF7BD
:101DBC00ABFE801B6428F5D90320BCE00010024068
:101DCC0000004242007000405F4A136A43F0010376
:101DDC001362E36833B3FFF797FE06465A4B1B6A50
:101DEC0013F0020F2FD1FFF78FFE801B41F28833C7
:101DFC009842F3D903209EE0052B09D0524B1A6A66
:101E0C0022F001021A621A6A22F004021A62E0E756
:101E1C004D4B1A6A42F004021A621A6A42F001022D
:101E2C001A62D6E7FFF770FE0646474B1B6A13F0A3
:101E3C00020F08D0FFF768FE801B41F288339842EE
:101E4C00F3D9032077E0E5B9E369002B72D03E4A61
:101E5C00526802F00C02082A56D0022B17D03B4BCA
:101E6C0000221A66FFF750FE0446374B1B6813F02E
:101E7C00007F47D0FFF748FE001B0228F5D903204E
:101E8C0059E0314AD36923F08053D361DCE72F4BFF
:101E9C0000221A66FFF738FE05462B4B1B6813F021
:101EAC00007F06D0FFF730FE401B0228F5D9032037
:101EBC0041E0236AB3F5803F1AD023494B6823F4E1
:101ECC007413226A606A024313434B601F4B012256
:101EDC001A66FFF719FE04461B4B1B6813F0007FB4
:101EEC000ED1FFF711FE001B0228F5D9032022E0CA
:101EFC00154A536823F40033A1680B435360DCE7A5
:101F0C00002018E0002016E0012B16D00E4B5B6869
:101F1C0003F48031226A914211D103F47013626A86
:101F2C0093420ED1002006E001207047012002E010
:101F3C00012000E0002002B070BD0120FBE7012071
:101F4C00F9E70120F7E700BF001002400000424211
:101F5C000F4B5B6803F00C02082A01D00D48704748
:101F6C00C3F383420C49885C13F4803F0BD0084BBD
:101F7C005B68C3F34043094AD35C064A02FB00F09A
:101F8C00B0FBF3F07047064B03FB00F0704700BF4B
:101F9C000010024000127A00043D0008003D0008C9
:101FAC0000093D00002800F0A08070B50D460446E5
:101FBC00524B1B6803F007038B420BD24F4A13683A
:101FCC0023F007030B431360136803F007038B42E2
:101FDC0040F08D80236813F0020F17D013F0040F1C
:101FEC0004D0474A536843F4E0635360236813F00A
:101FFC00080F04D0424A536843F460535360404A7C
:10200C00536823F0F003A1680B435360236813F06B
:10201C00010F31D06368012B20D0022B25D0384A18
:10202C00126812F0020F64D035494A6822F003029C
:10203C0013434B60FFF768FD0646314B5B6803F0BA
:10204C000C036268B3EB820F16D0FFF75DFD801BAB
:10205C0041F288339842F0D9032045E0284A1268AF
:10206C0012F4003FE0D101203EE0254A126812F044
:10207C00007FD9D1012037E0204B1B6803F0070308
:10208C00AB420AD91D4A136823F007032B43136094
:10209C00136803F00703AB422DD1236813F0040F30
:1020AC0006D0174A536823F4E063E1680B4353608E
:1020BC00236813F0080F07D0114A536823F46053B8
:1020CC00216943EAC1035360FFF742FF0C4B5B6885
:1020DC00C3F303130B4AD35CD8400B4B18600B4B68
:1020EC001868FFF7CDFC002070BD0120704701205F
:1020FC00FAE70120F8E70120F6E700BF00200240D4
:10210C00001002401C3D00080C00002008000020BC
:10211C00014B1868704700BF0C00002008B5FFF792
:10212C00F7FF044B5B68C3F30223034AD35CD8402C
:10213C0008BD00BF00100240143D000808B5FFF7B1
:10214C00E7FF044B5B68C3F3C223034AD35CD8405C
:10215C0008BD00BF00100240143D000870B582B0ED
:10216C000024A446A1E07E4DAB4214D00CD8A5F5BA
:10217C008015AB420FD005F57025AB420BD0A5F501
:10218C008015AB4210D106E0764DAB4203D005F57D
:10219C008035AB4208D18B68002B50D0012B49D035
:1021AC004261082400E0CC68BEF1FF0F49D8064616
:1021BC004FEA8C0233680F25954023EA050304FA95
:1021CC0002F2134333604B6813F0805F6BD0664BA5
:1021DC009A6942F001029A619B6903F00103019331
:1021EC00019B4FEA9C02951C604B53F825600CF048
:1021FC000305AD000F23AB4026EA03065C4B984267
:10220C0026D003F58063984200F08C8003F5806340
:10221C00984200F0898003F58063984216D004231D
:10222C0017E0CC680434BFE7CC680834BCE7CC6852
:10223C000C34B9E702610824B6E70024B4E704249F
:10224C00B2E7061DACF108029200B3E7032300E0ED
:10225C000023AB4033430232444D45F822304B68E7
:10226C0013F4801F62D0434A936843EA0E039360D1
:10227C004B6813F4001F5FD03E4AD36843EA0E0349
:10228C00D3604B6813F4003F5CD03A4A536843EA7E
:10229C000E0353604B6813F4803F59D0354A1368D2
:1022AC0043EA0E0313600CF1010C0B6833FA0CF2C9
:1022BC0054D0012202FA0CF203EA020E32EA0303B2
:1022CC00F1D14B68122B3FF64EAF122B3FF66CAF91
:1022DC0001A555F823F000BFA3210008B321000885
:1022EC003522000847220008B5210008B521000856
:1022FC00B5210008B5210008B5210008B52100085A
:10230C00B5210008B5210008B5210008B521000849
:10231C00B5210008B5210008B52100082F220008BE
:10232C003B220008012394E7022392E7114A9368A9
:10233C0023EA0E0393609BE70E4AD36823EA0E034D
:10234C00D3609EE70B4A536823EA0E035360A1E760
:10235C00084A136823EA0E031360A4E702B070BDA9
:10236C00000022100000311000100240000001405B
:10237C0000080140000401400AB1016170470904E2
:10238C0001617047002808DB0901C9B200F1604007
:10239C0000F5614080F80013704700F00F00090150
:1023AC00C9B2014B1954704714ED00E000B500F0B0
:1023BC000700C0F1070CBCF1040F28BF4FF0040C50
:1023CC00031D062B0FD9C31E4FF0FF3E0EFA0CF067
:1023DC0021EA000199400EFA03FE22EA0E0241EABC
:1023EC0002005DF804FB0023EEE70000074AD36807
:1023FC0023F4E0631B041B0C000200F4E0600343B5
:10240C0043F0BF6343F40033D360704700ED00E04A
:10241C0010B50446054BD868C0F30220FFF7C6FF81
:10242C0001462046FFF7AEFF10BD00BF00ED00E0F7
:10243C000138B0F1807F0BD24FF0E0235861054A90
:10244C00F02182F823100020986107221A6170474E
:10245C000120704700ED00E07047000010B5044605
:10246C000268136923F44053C1680B4313618368FA
:10247C000269134342691A430168CB6823F4B053D1
:10248C0023F00C031343CB600268536923F44073AD
:10249C0081690B4353610268134B9A4220D0FFF7BA
:1024AC003DFE024602EB820202EB820263689B0055
:1024BC00B2FBF3F20D48A0FB02314909642303FB84
:1024CC0011231B013233A0FB03035B0903F0F00261
:1024DC0002EB011203F00F03216813448B6010BD53
:1024EC00FFF72CFE0246DDE7003801401F85EB515B
:1024FC002DE9F84305460F4616469946DDF820802F
:10250C002B681C6837EA04040CBF01240024B44275
:10251C002DD1B8F1FF3FF3D0B8F1000F05D0FFF784
:10252C00F3FAA0EB09004045EAD92A6802F10C0342
:10253C0053E8003F23F4D0730C3242E800310029F9
:10254C00F3D12A6802F1140353E8003F23F001038E
:10255C00143242E800310029F3D1202385F84130B0
:10256C0085F84230002385F84030032000E000203D
:10257C00BDE8F88360B310B5044690F8413013B34E
:10258C00242384F841302268D36823F40053D360A9
:10259C002046FFF763FF2268136923F4904313610D
:1025AC002268536923F02A0353612268D36843F4E9
:1025BC000053D36000206064202384F8413084F8F9
:1025CC004230606310BD80F84030FEF74DFFD7E716
:1025DC00012070472DE9F04182B01E4690F8413041
:1025EC00DBB2202B4BD104460D46904600294AD035
:1025FC000AB9012044E000234364212380F84130D0
:10260C00FFF782FA0746A4F82480A4F82680A36872
:10261C00B3F5805F02D04FF000080FE02369FBB1E7
:10262C004FF000080AE038F8023B2268C3F30803B5
:10263C005360E28C92B2013A92B2E284E38C9BB288
:10264C008BB100963B46002280212046FFF750FFBD
:10265C00D8B9002DE7D015F8012B23685A60E8E7AC
:10266C00A8460025EAE700963B460022402120467A
:10267C00FFF73EFF58B9202384F8413000E00220D8
:10268C0002B0BDE8F0810120FAE70320F8E703204F
:10269C00F6E70000FFF7E0FE0B480C490C4A00235C
:1026AC0002E0D458C4500433C4188C42F9D3094AFC
:1026BC00094C002301E013600432A242FBD300F06A
:1026CC000FF8FEF7A9FC7047000000206000002006
:1026DC00C43D00086000002078030020FEE70000E5
:1026EC0070B500260C4D0D4C641BA410A64209D1EC
:1026FC0001F084F800260A4D0A4C641BA410A64273
:10270C0005D170BD55F8043B98470136EEE755F8F6
:10271C00043B98470136F2E7BC3D0008BC3D00087D
:10272C00BC3D0008C03D00080A44914200F1FF3353
:10273C0000D1704710B511F8014B914203F8014FCD
:10274C00F9D110BD024B0146186800F02DB800BF3E
:10275C0010000020024B0146186800F0DFB800BFE3
:10276C001000002070B50F4E0C463168054611B9AB
:10277C0000F0BCF830602146284600F0B7F8431C46
:10278C0003D14FF0FF34204670BDC41C24F0030469
:10279C00A042F8D0211A284600F0A8F80130F2D156
:1027AC00EFE700BF2C0200202DE9F843CD1C25F0EB
:1027BC00030508350C2D38BF0C25002D064601DB12
:1027CC00A94204D90C2333600020BDE8F883DFF85C
:1027DC00D48000F069F8D8F800301C4644BB294678
:1027EC003046FFF7BFFF431C044658D1D8F80040D1
:1027FC002746002F43D1002C4BD023683946304656
:10280C0004EB030900F072F8814542D1216830468F
:10281C006D1A2946FFF7A6FF01303AD023682B44E6
:10282C002360D8F800305A6862BBC8F800700FE01B
:10283C002268521B20D40B2A17D96119A342256098
:10284C0018BF5960636808BFC8F8001062514B602C
:10285C00304600F02FF804F10B00231D20F0070088
:10286C00C21A1CBF1B1AA350AFE76268A3420CBF6D
:10287C00C8F800205A60EBE723466468AEE73C4694
:10288C007F68B6E71A465B68A342FBD1002353600E
:10289C00DEE70C233046336000F00CF894E705605B
:1028AC00D6E700BF30020020014800F07FB800BF1F
:1028BC006C030020014800F07AB800BF6C030020C4
:1028CC000A7870B56AB970BD9A4209D10C460546B2
:1028DC0014F8013F002BF6D015F8016F9E42F7D08B
:1028EC0001300378002BEFD11846ECE738B5002304
:1028FC00054D044608462B6000F05AF8431C02D1E3
:10290C002B6803B1236038BD7003002003460244DA
:10291C00934200D1704703F8011BF9E738B505461F
:10292C00002940D051F8043C0C1F002BB8BFE41810
:10293C00FFF7BAFF1C4A136833B96360146028466A
:10294C00BDE83840FFF7B6BFA34208D9206821186C
:10295C008B4201BF19685B6809182160EDE71A46C4
:10296C005B680BB1A342FAD911685018A0420BD185
:10297C0020680144501883421160E0D118685B68EC
:10298C00084410605360DAE702D90C232B60D6E7B9
:10299C00206821188B4201BF19685B6809182160F7
:1029AC0063605460CBE738BD30020020704770473D
:1029BC00044A05491368002B08BF0B4618441060E5
:1029CC0018467047740300207803002003685A00EF
:1029DC004CBF43F0004323F000431844704700BF42
:1029EC002DE9F04741B301F1FF380546164647463D
:1029FC000024E11901EBD171491005EBC10A5046D5
:102A0C00FFF7E4FF884503464FEAC1090ED009F1F0
:102A1C000800B34228440BD8FFF7D8FF0138B04266
:102A2C0001F10104E5D35046BDE8F087B042FAD974
:102A3C008C4201D04F1EDCE74FF0000A5046BDE837
:102A4C00F08700BF012809D0022805D0044B0028CC
:102A5C000CBF184600207047024870470248704768
:102A6C0039310008493100084131000830B5224B9A
:102A7C00044683B08D1E3BB3284601A9AFF30080FA
:102A8C00E8B101992A46FFF7ABFF0146B8B1FFF751
:102A9C009DFF4B68A064012B2BD0002B26DB081D5F
:102AAC00FFF794FF002323650368E064002B12DB1F
:102ABC00FFF78CFF03460020236103B030BD0023D9
:102ACC000920236103B030BD0C4B0D491846C91ABF
:102ADC00C9100191D6E7C3F30360FFF7B3FF031EE0
:102AEC000CBF09200020236103B030BD0123081D59
:102AFC00D9E700230520DFE7000000002C3D00088B
:102B0C00BC3D0008036810B5DA07044606D49B07E1
:102B1C0000F1500009D5FDF71FFB2368590709D5B3
:102B2C001A070ED5DB0613D510BDFDF70DFB236878
:102B3C005907F5D404F1D800FDF716FB23681A07E2
:102B4C00F0D404F5AC70FDF717FB2368DB06EBD46F
:102B5C0004F5EC70BDE81040FDF752BB034600686D
:102B6C0000B11844704700BF704700BF70B50446F1
:102B7C000E462046316CFFF779FF054698B9D6F81A
:102B8C0040C03246214601202369C4F814C098473E
:102B9C000828EED0072806D12846316CFFF7E4FF51
:102BAC00301DFDF7C5FA00F0DDFD00BF2DE9F04743
:102BBC004FF0000AADF5767D0DF10C0E01F1040C11
:102BCC00C768D0F8188006461446BCE80F00AEE87B
:102BDC000F00BCE80F00AEE80F00BCE80F00AEE839
:102BEC000F009CE80F0002AD8EE80F00C5F800A0A6
:102BFC0021E02B6C4FF4F472294673617CA8FFF72B
:102C0C0093FD3146504633697CAA98478A9C82468C
:102C1C00AC640120334632464946CDE90058B847EA
:102C2C00044630BB4FF4F47228467CA9FFF77CFDB8
:102C3C00BAF1080F1AD13046296CFFF717FF04F1CF
:102C4C0009095FFA89FA04460028D2D0A96B3346E9
:102C5C00A96432460120CDE900584AF01001B8476A
:102C6C0038B920460DF5767DBDE8F087BAF1070F2F
:102C7C0005D0092420460DF5767DBDE8F087204669
:102C8C00296CFFF771FF03A8FDF752FAF0B54FF06E
:102C9C00FF37CB6BFBB00B6401AC01F1040C0E469F
:102CAC000546BCE80F000FC4BCE80F000FC4BCE81D
:102CBC000F000FC49CE80F0084E80F00009706E09B
:102CCC006A4629462B6998470828044608D12846A5
:102CDC001099FFF7CBFE0028F2D009207BB0F0BD95
:102CEC006846FFF70FFF062CF7D131462846FFF751
:102CFC003DFF00BF10B414468461DC6BC160002240
:102D0C001C64194610BCFFF751BF00BF70B5436976
:102D1C00C6680B64AEB90A46036904460D46014603
:102D2C0002209847072805D008280FD129462046AD
:102D3C00FFF71CFF3046296CFFF716FF281DFDF727
:102D4C00F7F90122FFF732FF00F00CFD00F00AFD4D
:102D5C00C26832B1D1F83CC00022C1F840C0FFF7C4
:102D6C0025BFFFF793BF00BF052915D8DFE801F099
:102D7C000A031403030501207047436C009A0020DA
:102D8C001360704743B90F2A06D800EB82025368D0
:102D9C00009A00201360704702207047002300B592
:102DAC0085B00A4603A900911946FFF7DDFF039889
:102DBC0005B05DF804FB00BF052915D8DFE801F06C
:102DCC000A031403030501207047009B1B6843642E
:102DDC000020704743B90F2A06D8009B00EB8202F3
:102DEC001B6800205360704702207047002310B509
:102DFC0084B003AC039200940A461946FFF7DCFF3B
:102E0C0004B010BD70B54FF0FF36D36BADF5107D2F
:102E1C0013640DF15C0E02F1040C05460C46BCE883
:102E2C000F00AEE80F00BCE80F00AEE80F00BCE8E6
:102E3C000F00AEE80F009CE80F008EE80F0016960E
:102E4C0012E00C2116A86A46FFF7D0FF214616A8FF
:102E5C00A84778B969460820049B16AA9847052804
:102E6C00064608D0092805D068462699FFF7FEFDCE
:102E7C000028E6D0092616A8FFF744FE30460DF5CB
:102E8C00107D70BD2DE9F04F1646CA6C0D4652F8F8
:102E9C00041B89B000F0030C0692002B79D002249D
:102EAC000F0C8DF81D700904FFB2059102EB87021F
:102EBC00296DBCF1020F08BFAA6B11F001088DF847
:102ECC001C4009D0304605A900F0CEFA002856D196
:102EDC00082009B0BDE8F08F1768002FF2D0E34648
:102EEC009A4600F00801CDE90118BAF1020F4CD056
:102EFC001788548802F10409AA6C24F001030F21ED
:102F0C00304603EB0208FFF749FF80453BD827F01A
:102F1C00010202EB0803834294BF002301236400E7
:102F2C0004F0020407F001072743012F4ED0022FB3
:102F3C0035D027BBBBF1000F02D0002B40F0D48062
:102F4C0009F104021768002FCFD1304605A9DDF82E
:102F5C00088000F089FA90B9B8F1000FB8D00F21B1
:102F6C003046FFF71BFF0E2102463046FFF73EFFAF
:102F7C000F2130466C4AFFF739FF072000E009208B
:102F8C0009B0BDE8F08F0023C9E7546802F10809C5
:102F9C00B2E70902032405918DF81D3088E7D9F8B2
:102FAC00004024F00048BBF1000F47D12BB1019B2E
:102FBC00002B5CD0B8F1000F59D0002C01DA09F1CC
:102FCC00040908F1010209EB8202BBE7BBF1000F17
:102FDC001CD1C3B1D9F80430D9F80020991C4FEAA0
:102FEC00D272CCD005F158040133049400F08F80D8
:102FFC0009F10400FFF7B2FD04AB01462846AFF31C
:10300C000080002859D109F108029BE70D213046B8
:10301C00FFF7C4FE2C6A8442F5D1AB6A9945F2D114
:10302C004846FFF7D3FC0F2102463046FFF7DEFE81
:10303C002A4600213046FFF7D9FE9EE70D21304687
:10304C00FFF7ACFE2F6A8742B7D1AB6A9945B4D172
:10305C0000240423C5E90B434B44C5F828806B635B
:10306C00D9F80030A34259DB01230293A9E705F1FB
:10307C005803CDF80CB00024B34609F104071E46E2
:10308C000BE038460496FFF769FD0022014604ABBD
:10309C002846AFF30080043700BB444504F101041B
:1030AC00EFD10D215846FFF779FE0246049B06200E
:1030BC00C5E90823C5F8289062E704460D2130467F
:1030CC00FFF76CFE049E022C08BFEE62286208BF5C
:1030DC0005F12C060620C5E9096951E75E46D9F8C9
:1030EC000040DDF80CB068E74846FFF76FFC09F1CB
:1030FC0004020446AA632846AFF3008000283FF47C
:10310C003EAF22460F213046FFF770FE35E73046C2
:10311C000D21FFF743FE26462862DBE708F101028A
:10312C0009EB82007DE700BF000000000023FFF7E1
:10313C00A9BE00BF0123FFF7A5BE00BF0223FFF706
:10314C00A1BE00BF2DE9F04105461446C4B00529C7
:10315C0000F2D780DFE811F012002A00D5006900D8
:10316C0090000600836B002C40F0CB8053F8042BAE
:10317C0042648363002044B0BDE8F081002B40F032
:10318C00C0804FF0010E816B2A1DA0B20EFA03FC19
:10319C001CEA000F1CBF51F8046B42F8236001338A
:1031AC00102BF3D1A004E5D4A963E3E7012B4FEA7C
:1031BC001447A4B200F08580052B40F0A28007EBE9
:1031CC000408B8F1200F00F29C800F2F40F29B8076
:1031DC00002CCFD00268560700F11A81019302AE81
:1031EC003046FCF7C5FF4FEA440CA7F11002A86B60
:1031FC00019B0CF1FF3C06EBC2020CF1010C043AF2
:10320C0000EB8C0150F8044B884242F8044FF9D182
:10321C00012B00F0E0800F2FA86302D822A8FCF746
:10322C009BFF3046FCF7A0FFA4E7032B69D11FFAE4
:10323C0084F808EB1443102B4FEA144461D803684C
:10324C00180700F1C08022AE3046FCF7B7FF4FEAFA
:10325C004801AF6B06EBC4024B1E41B1B81A1158B2
:10326C00013B42F8041B591CF9D107EBC807304647
:10327C00AF63FCF781FF7DE7002B42D1102C40D8C7
:10328C000368DE0600F1978022AE3046FCF7C2FFE1
:10329C00012700233046A96B07FA03F2224203F1FF
:1032AC00010305D00A4652F804CB1146C0F800C001
:1032BC00042B00F10400EFD13046A963FCF7A0FF0A
:1032CC0058E73A19102A1CD8102F1AD00268D007C8
:1032DC0008D5284622F0030240F8502B0193FCF746
:1032EC0037FF019B22AE30460193FCF731FFA96BEF
:1032FC00019B002C58D104313046A963FCF724FF04
:10330C0038E7022037E7B8F1100F026865D9D1070A
:10331C0072D522F0010242F0020240F8502B0193C8
:10332C00FCF71EFF2A68019B12F0040F66D122AE37
:10333C0030460193FCF714FF02A8FCF719FFC7F104
:10334C0010025200A96B019B541EA8F1100C06EB45
:10335C00C7020134043A01EB840051F8044B81425A
:10336C0042F8044FF9D1BCF1000F59D0102F3A4656
:10337C0038BF10224FEA4C0C02AE103A0CF1FF3C55
:10338C0006EBC20239E7284622F0010242F00202A3
:10339C0040F8502B22AE0193FCF7E2FE3046FCF7CE
:1033AC00DFFEA96B24B3019B64004FF0000C013CC1
:1033BC0006EBC702CDE723F01003036000F5EC70B9
:1033CC00FCF728FF60E723F008032B6005F5AC70D1
:1033DC00FCF7F4FE37E722AE8DE7D107D3D422AE4B
:1033EC0030460193FCF7BCFEA96B019B002CDBD192
:1033FC003046FCF7B1FEBDE6540798D5284622F0BE
:10340C00040240F8D82B0193FCF7B2FE019B8EE727
:10341C0022F0040240F8D82B0193FCF7A9FEDEE65B
:10342C00012B3FF468AF0F2FA9633FF6A3AEDFE784
:10343C00027A03467AB9427AA2B14FF0030C416882
:10344C00013A427208680A1D5A60020283F808C0E9
:10345C00000E1A6070470068013A1A7202021A6074
:10346C00000E7047B02070472DE9F0434FF0000874
:10347C0006460D4685B02846FFF7DAFFB02804460D
:10348C0000F0128107065CD500F0F003A02B1AD0D7
:10349C0030D8802B00F08380902B27D100F00D03C7
:1034AC000D2B23D0002302AF194600F00F0200971A
:1034BC003046FFF759FC00230D2219463046009781
:1034CC00FFF77AFCD7E7C3434FF47F6203F007039F
:1034DC001A41010702F47F6201D542F480420023B5
:1034EC0030461946FFF72EFE0028C4D0092005B03F
:1034FC00BDE8F083B02B69D0C02B3ED1C62800F0BC
:10350C00BF80C72800F0D58000F0F803C02B00F076
:10351C00E280C82800F0ED80C928E7D12846FFF7E3
:10352C0087FF052301210446220304F00F0402F453
:10353C0070220C4430462243FFF704FE00289AD038
:10354C00D4E78300DBB21F1D00230DF108091946D7
:10355C000D223046CDF80090FFF706FC029B60066A
:10356C004CBFDF1BFF1800230D2230461946CDF847
:10357C0000900297FFF720FC7DE700F0F803D02BBA
:10358C00B4D100F00702013205230121304642F488
:10359C000022FFF7D7FD00283FF46DAFA6E72846C1
:1035AC00FFF746FF24022043B0F5004F9ED00023C6
:1035BC00040119463046A2B2FFF7C4FD002895D18C
:1035CC0014F4004F18BF4FF0010854E7A0F1B103F9
:1035DC00042B00F2B380DFE803F0491D160C030046
:1035EC00002303AA009230460D221946FFF7BCFBBC
:1035FC0041E70023052130461A46FFF7A3FD0028BA
:10360C003FF439AF72E72846FFF712FF0123044657
:10361C00194689E700230DF108090D221946304699
:10362C00CDF80090FFF7A0FB2846FFF701FF02063C
:10363C004FF00207029C0BD500F07F00B840044409
:10364C0028460294FFF7F4FE030607F10707F3D4AC
:10365C000023B84004F5017404440D223046194689
:10366C00CDF800900294FFF7A7FB04E72846FFF77C
:10367C00DFFE431EDBB20E2B02467FF630AF35E782
:10368C002846FFF7D5FE04460323220304F00F045B
:10369C0002F470220134194630462243FFF752FDE2
:1036AC0000283FF4E8AE21E7B8F1000F36D0002037
:1036BC001DE72846FFF7BCFE431EDBB20E2B02466D
:1036CC003FF614AF002304213046FFF73BFD0028E2
:1036DC003FF4D1AE0AE7032300F00F02013230466B
:1036EC00194642F42022FFF72DFD00283FF4C3AE0B
:1036FC00FCE62846FFF79CFE0246012102F0F0048E
:10370C0002F00F0210340A440523304642EA043218
:10371C00FFF718FD00283FF4AEAEE7E602AC4346D7
:10372C0041460E2230460094FFF71EFB0F22434603
:10373C00414630460094FFF73FFBB8E700F0FC032E
:10374C00B42B3FF4D3AE012300F007021A443046E9
:10375C00194642F40022FFF7F5FC00283FF48BAE2B
:10376C00C4E600BF062008B500F02CF80120FDF7D8
:10377C00ECFB1F2938B505460C4604D9162303600B
:10378C004FF0FF3038BDC26B12B152F821304BB93B
:10379C00284600F031F8224601462846BDE838405C
:1037AC0000F018B8012B0AD0591C03D11623036062
:1037BC000120E7E70021204642F82410984700201A
:1037CC00E0E70000024B01461868FFF7D2BF00BFCC
:1037DC001000002038B50023064D0446084611465B
:1037EC002B60FDF7ADFB431C02D12B6803B12360AA
:1037FC0038BD00BF70030020FDF7A5BBF8B500BFB6
:10380C00F8BC08BC9E467047F8B500BFF8BC08BCB5
:04381C009E4670470D
:1038200020417267756D656E7420000046756E6389
:1038300074696F6E200000002049676E6F726564C6
:1038400020000000204661696C75726573200000DD
:1038500020546573747320002D2D2D2D2D2D2D2DAD
:103860002D2D2D2D2D2D2D2D2D2D2D2D2D2D2D00B5
:103870002041637475616C20706F696E746572208D
:10388000776173204E554C4C000000002045787045
:10389000656374656420706F696E74657220746FFF
:1038A000206265204E554C4C0000000020596F7579
:1038B0002041736B6564204D6520546F20436F6D0C
:1038C00070617265204E6F7468696E672C2057684E
:1038D0006963682057617320506F696E746C6573FB
:1038E000732E000020456C656D656E74200000002D
:1038F000205761732000000020457870656374656F
:10390000642000002E2000004641494C00000000C9
:1039100050415353000000004F4B0000556E697436
:103920007920746573742072756E2000206F662094
:10393000000000002D680000000000002D2D6865CB
:103940006C70000052756E7320612073657269653A
:1039500073206F6620756E69742074657374732E9E
:10396000000000005768656E206E6F20666C61670E
:10397000206973207370656369666965642C2061D2
:103980006C6C207465737473206172652072756E3F
:103990002E0000004F7074696F6E616C20666C6160
:1039A00067733A0020202D76202020202020202020
:1039B0002020566572626F7365206F757470757420
:1039C0003A2073686F7720616C6C20746573747330
:1039D000206578656375746564206576656E206919
:1039E00066207468657920706173730020202D73E0
:1039F0002020202020202020202053696C656E7418
:103A0000206D6F64653A206D696E696D616C206F21
:103A100075747075742073686F77696E67206F6E48
:103A20006C792074657374206661696C7572657356
:103A30000000000020202D67204E414D4520202011
:103A400020204F6E6C792072756E207465737473CC
:103A500020696E2067726F757073207468617420BE
:103A6000636F6E7461696E20746865207374726927
:103A70006E67204E414D450020202D6E204E414D59
:103A80004520202020204F6E6C792072756E2074A6
:103A9000657374732077686F7365206E616D652040
:103AA000636F6E7461696E732074686520737472DD
:103AB000696E67204E414D450000000020202D72A8
:103AC000204E554D4245522020205265706561744C
:103AD00065646C792072756E20616C6C20746573FE
:103AE0007473204E554D4245522074696D657300C4
:103AF00020202D682C202D2D68656C7020204469B5
:103B000073706C617920746869732068656C7020CB
:103B10006D657373616765004D6F726520696E66D0
:103B20006F726D6174696F6E2061626F757420557C
:103B30006E6974793A2068747470733A2F2F7777AE
:103B4000772E7468726F77746865737769746368C9
:103B50002E6F72672F756E69747900002D760000E4
:103B60002D7300002D6700002D6E00002D720000E7
:103B7000200000005445535428666C6173685F64EC
:103B800072697665722C20636865636B5F6C696E21
:103B90006B5F737563636573732900005465737499
:103BA000732F7461726765745F74657374732F66C5
:103BB0006C6173685F6472697665722F666C61739D
:103BC000685F6472697665725F746573742E6300F2
:103BD000636865636B5F6C696E6B5F737563636568
:103BE00073730000666C6173685F647269766572F6
:103BF000000000005445535428666C6173685F648C
:103C000072697665722C2072616E646F6D5F777277
:103C10006974655F616E645F726561645F62797427
:103C2000655F7375636365737329000072616E6409
:103C30006F6D5F77726974655F616E645F726561F5
:103C4000645F627974655F737563636573730000A5
:103C50005445535428666C6173685F647269766575
:103C6000722C2077726974655F616E645F72656142
:103C7000645F706167655F73756363657373290063
:103C800077726974655F616E645F726561645F70AD
:103C90006167655F7375636365737300544553545F
:103CA00028666C6173685F6472697665722C207730
:103CB000726974655F616E645F726561645F6D7582
:103CC0006C7469706C655F70616765735F73756351
:103CD000636573732900000077726974655F616EB4
:103CE000645F726561645F6D756C7469706C655F4B
:103CF00070616765735F737563636573730000005C
:103D00000102000002030405060708090A0B0C0D56
:103D10000E0F10100000000001020304000000005C
:0C3D20000000000001020304060708096F
:103D2C00E0C3FF7FB0B0B080F4C3FF7F01000000A0
:103D3C003CEDFF7FB0A90280CCEDFF7FB0B0A88036
:103D4C001CEEFF7F0100000024EEFF7FB0B0AA80C4
:103D5C005CEEFF7FAE75B28034EFFF7FAB3F3A80F5
:103D6C0094EFFF7F01000000A4EFFF7FB0B0AA80AA
:103D7C00E0EFFF7F010000008CF0FF7FAA0FB28004
:103D8C0004F1FF7FB0AF0880A4F3FF7F01000000B7
:103D9C00B4F3FF7FAC3F038098F6FF7F0100000077
:103DAC00C8F6FF7FB0AD0480BCF9FF7F01000000B6
:043DBC0051030008A7
:043DC00029030008CB
:103DC400D001002001000000100000000024F400D5
:103DD4001400002000000000340200209C02002097
:103DE40004030020000000000000000000000000A8
:103DF40000000000000000000000000000000000BF
:103E040000000000000000000000000000000000AE
:103E1400000000000000000000000000000000009E
:04000005080026A128
:00000001FF
