:020000040800F2
:1000000000500020191500080D0300080F03000818
:100010001103000813030008150300080000000086
:1000200000000000000000000000000017030008AE
:1000300019030008000000001B0300081D0300084E
:1000400061150008611500086115000861150008B8
:1000500061150008611500086115000861150008A8
:100060006115000861150008611500086115000898
:100070006115000861150008611500086115000888
:100080006115000861150008611500086115000878
:100090006115000861150008611500086115000868
:1000A0006115000861150008611500086115000858
:1000B0006115000861150008611500086115000848
:1000C0006115000861150008611500086115000838
:1000D0006115000861150008611500086115000828
:1000E0006115000861150008611500080000000096
:1000F0000000000000000000000000000000000000
:0C01000000000000000000005FF808F1A3
:10010C000348044B834202D0034B03B1184770479A
:10011C006000002060000020000000000548064B35
:10012C001B1AD90F01EBA301491002D0034B03B1E9
:10013C00184770476000002060000020000000009D
:10014C0010B5064C237843B9FFF7DAFF044B13B113
:10015C000448AFF300800123237010BD6000002021
:10016C00000000002418000808B5054B1BB1054918
:10017C000548AFF30080BDE80840FFF7CFBF00BFD4
:10018C0000000000640000202418000810B586B0A0
:10019C0000220292039204920592124B996941F04B
:1001AC0004019961996901F0040100910099996920
:1001BC0041F0080199619B6903F008030193019BCD
:1001CC00094C0121204601F029F8012302930393E5
:1001DC0004930223059302A9204600F011FF06B0F8
:1001EC0010BD00BF00100240000C014072B6FEE7CB
:1001FC0008B50D480D4B03604FF482734360002328
:10020C008360C360036143614FF400728261C36118
:10021C000362436283620A23C36200F04FF900B9A0
:10022C0008BDFFF7E3FF00BF7C0000200030014059
:10023C0000B591B02822002106A801F08DFA002308
:10024C0001930293039304930593022306930123D2
:10025C000A9310230B9306A800F0EAFB68B90F234E
:10026C0001930021029103910491059101A800F0E2
:10027C0011FE20B911B05DF804FBFFF7B7FFFFF7D3
:10028C00B5FF000010B592B000F098FBFFF7D0FF5F
:10029C00FFF77CFFFFF7ACFF01F05FF808B1FFF749
:1002AC00A5FF0446154B1193042211A9002001F05F
:1002BC007CF80443E4B2042211A9104601F075F84D
:1002CC000443E4B2042211A9082001F06EF804439F
:1002DC00E4B2042211A90C2001F067F80443E4B243
:1002EC00402201A9002001F0A1F8044314F0FF0FF3
:1002FC0002D19DF8043003B900BFFEE755AA55AAF8
:10030C00FEE7FEE7FEE7FEE7FEE770477047704743
:10031C0008B500F065FB08BD82B00E4B9A6942F03F
:10032C0001029A619A6902F001020092009ADA695C
:10033C0042F08052DA61DB6903F080530193019B38
:10034C00054A536823F0E06343F00073536002B036
:10035C00704700BF001002400000014010B586B08D
:10036C00002302930393049305930268164B9A425D
:10037C0001D006B010BD03F560439A6942F4805277
:10038C009A619A6902F480520092009A9A6942F03A
:10039C0004029A619B6903F004030193019BA0235F
:1003AC0002930223039303230593084C02A92046CE
:1003BC0000F026FE4023029300230393049302A92A
:1003CC00204600F01DFED4E700300140000801403B
:1003DC002DE9F04782B00546884617461E4600F0C8
:1003EC000BFB0A9B1B1A03EB060900F005FB82466C
:1003FC00284B1B68C3F3CB3309FB03F301932B6826
:10040C009C6838EA04040CBF01230023BB423DD096
:10041C00B6F1FF3FF3D000F0EFFAA0EB0A0048452D
:10042C0007D2019A02B14A46019B013B01939146C6
:10043C00E5E72A68536823F0E00353606B68B3F573
:10044C00827F0BD0AB6AB3F5005F14D0012385F823
:10045C005130002385F85030032018E0AB68B3F519
:10046C00004F02D0B3F5806FECD12A68136823F0EB
:10047C0040031360E6E72A68136823F40053136003
:10048C002A68136843F400531360DFE7002002B0BE
:10049C00BDE8F0870C00002010B582B004460B4676
:1004AC00009200228021FFF793FF08B902B010BD23
:1004BC00636D43F0200363650320F7E7002856D0F3
:1004CC0010B50446436A33B94368B3F5827F05D04F
:1004DC000023C36102E00023036143610023A36294
:1004EC0094F85130002B3CD0022384F85130226810
:1004FC00136823F040031360636803F48273A268EB
:10050C0002F404421343E26802F4006213432269CA
:10051C0002F002021343626902F001021343A26962
:10052C0002F400721343E26902F038021343226AA8
:10053C0002F080021343A26A02F4005221681343B2
:10054C000B60638B226803F0040353602268D36949
:10055C0023F40063D36100206065012384F85130DB
:10056C0010BD84F850302046FFF7F8FEBCE70120A0
:10057C0070472DE9F04383B01D4690F85030012BA5
:10058C0000F0D180044688469146012380F8503013
:10059C0000F032FA074694F85160F6B2012E40F0A2
:1005AC00BA80B8F1000F00F0B780B9F1000F00F07D
:1005BC00B380032384F8513000236365C4F8308082
:1005CC00A4F83490A4F83690A363A387E3876364FC
:1005DC002364A368B3F5004F1ED023681A6812F089
:1005EC00400F03D11A6842F040021A60E368B3F579
:1005FC00006F1CD0636813B1B9F1010F55D1226B98
:10060C00236812781A73236B01332363E38E9BB236
:10061C00013B9BB2E38648E02268136823F0400359
:10062C0013602268136843F480431360D5E7636852
:10063C0013B1B9F1010F15D1226B23681288DA605E
:10064C00236B02332363E38E9BB2013B9BB2E386A5
:10065C0008E000F0D1F9C01BA84202D3B5F1FF3F6E
:10066C0015D1A5B1E38E9BB2002B3CD023689A68C0
:10067C0012F0020FEDD0226B1288DA60236B02337A
:10068C002363E38E9BB2013B9BB2E386EAE7012333
:10069C0084F8513003263FE000F0AEF9C01BA842AD
:1006AC0002D3B5F1FF3F19D1C5B1E38E9BB2D3B1E3
:1006BC0023689A6812F0020FEED0226B12781A732C
:1006CC00236B01332363B4F836C01FFA8CFC0CF196
:1006DC00FF3C1FFA8CFCA4F836C0E6E7012384F833
:1006EC005130032618E03A4629462046FFF7D4FE3F
:1006FC0008B120236365A36833B901932368DA68D2
:10070C0001929B680193019B636D2BB9012384F8C3
:10071C005130002600E00226002384F85030304689
:10072C0003B0BDE8F0830226F9E72DE9F04383B06E
:10073C001F460A9D90F85030012B00F0168104469C
:10074C0088469146012380F8503000F055F9064652
:10075C0094F85130DBB26268012B0AD0B2F5827F7B
:10076C0040F0F080A268002A40F0F380042B40F0A7
:10077C00F280B8F1000F00F0F080B9F1000F00F03A
:10078C00EE80002F00F0ED8094F85130DBB2042B9A
:10079C0002D0052384F8513000236365C4F83890E7
:1007AC00E787A787C4F83080E786A786236463644D
:1007BC0023681A6812F0400F03D11A6842F0400205
:1007CC001A60E368B3F5006F11D063680BB1012FA9
:1007DC000BD1226B236812781A73236B01332363BA
:1007EC00E38E9BB2013B9BB2E38601276EE063680C
:1007FC000BB1012F0BD1226B23681288DA60236BAB
:10080C0002332363E38E9BB2013B9BB2E386012749
:10081C001BE023689A6812F0010F0ED0E28F92B29F
:10082C005AB1DA68A36B1A80A36B0233A363E38F0C
:10083C009BB2013B9BB2E387012700F0DDF8801BE4
:10084C00A84202D3B5F1FF3F1ED1E38E9BB21BB978
:10085C00E38F9BB2002B5CD023689A6812F0020FD6
:10086C00D7D0E28E92B2002AD3D0002FD1D0226BF7
:10087C001288DA60236B02332363E38E9BB2013B55
:10088C009BB2E3860027C4E7012384F85130032090
:10089C0059E023689A6812F0010F0ED0E28F92B2E1
:1008AC005AB1DA68A36B1A70A36B0133A363E38F9D
:1008BC009BB2013B9BB2E387012700F09DF8831BA1
:1008CC00AB4202D3B5F1FF3F1ED1EDB1E38E9BB22B
:1008DC0013B9E38F9BB2E3B123689A6812F0020F4D
:1008EC00D7D0E28E92B2002AD3D0002FD1D0226B77
:1008FC0012781A73236B01332363E38E9BB2013B93
:10090C009BB2E3860027C4E7012384F8513003200F
:10091C0019E0324629462046FFF7BEFD70B9A368A0
:10092C0033B901932368DA6801929B680193019BA8
:10093C00636DC3B9012384F8513004E0202363654F
:10094C00012000E00220002384F8503003B0BDE801
:10095C00F0830220F7E70220F5E70120F3E70120FE
:10096C00F1E70120EFE70120EDE70220EEE70000C0
:10097C0010B504460E4B1A784FF47A73B3FBF2F3AE
:10098C000C4A1068B0FBF3F000F0A4FC68B90F2C13
:10099C0001D901200AE0002221464FF0FF3000F07F
:1009AC0089FC054B1C60002000E0012010BD00BF3D
:1009BC00040000200C0000200800002008B5074AA5
:1009CC00136843F010031360032000F061FC0F2048
:1009DC00FFF7CEFFFFF7A0FC002008BD002002406F
:1009EC00034A1168034B1B780B441360704700BF1C
:1009FC00D400002004000020014B1868704700BF91
:100A0C00D400002082B0084B1B68084AA2FB0323C9
:100A1C005B0A00FB03F3019300BF019B5A1E01927A
:100A2C00002BF9D102B070470C000020D34D62109E
:100A3C00002800F0F18170B582B00446036813F011
:100A4C00010F2CD0994B5B6803F00C03042B1DD0C9
:100A5C00964B5B6803F00C03082B12D06368B3F55C
:100A6C00803F41D0002B55D103F1804303F5043373
:100A7C001A6822F480321A601A6822F480221A60F2
:100A8C0037E08A4B5B6813F4803FE7D0874B1B68D9
:100A9C0013F4003F03D06368002B00F0BF81236880
:100AAC0013F0020F75D0814B5B6813F00C0F5FD005
:100ABC007E4B5B6803F00C03082B54D02369002B8E
:100ACC0000F08A807A4B01221A60FFF795FF0546E9
:100ADC00764B1B6813F0020F75D1FFF78DFF401B8F
:100AEC000228F5D903209EE1704A136843F4803341
:100AFC001360636843B3FFF77FFF05466B4B1B68BE
:100B0C0013F4003FCBD1FFF777FF401B6428F5D9D6
:100B1C00032088E1B3F5A02F09D0644B1A6822F4A6
:100B2C0080321A601A6822F480221A60E1E703F11D
:100B3C008043A3F53C331A6842F480221A601A6889
:100B4C0042F480321A60D4E7FFF756FF0546574B44
:100B5C001B6813F4003FA2D0FFF74EFF401B642824
:100B6C00F5D903205FE1514B5B6813F4803FA5D1AD
:100B7C004E4B1B6813F0020F03D02369012B40F07E
:100B8C004F814A4A136823F0F803616943EAC103B1
:100B9C001360236813F0080F33D0A369002B5CD0CB
:100BAC00434B0122C3F88024FFF726FF05463F4B39
:100BBC005B6A13F0020F21D1FFF71EFF401B0228C6
:100BCC00F5D903202FE1394A136823F0F803616942
:100BDC0043EAC1031360DCE7354B00221A60FFF7D0
:100BEC000BFF0546314B1B6813F0020FD1D0FFF7FA
:100BFC0003FF401B0228F5D9032014E10120FFF765
:100C0C0001FF236813F0040F00F09680274BDB697B
:100C1C0013F0805F34D1254BDA6942F08052DA61EF
:100C2C00DB6903F080530193019B0125214B1B6869
:100C3C0013F4807F26D0E368012B3DD0002B53D1D9
:100C4C0003F1804303F504331A6A22F001021A629D
:100C5C001A6A22F004021A6233E0154B0022C3F820
:100C6C008024FFF7C9FE0546104B5B6A13F0020F98
:100C7C00C7D0FFF7C1FE401B0228F5D90320D2E0F4
:100C8C000025D3E70B4A136843F480731360FFF716
:100C9C00B3FE0646074B1B6813F4807FCBD1FFF7DE
:100CAC00ABFE801B6428F5D90320BCE00010024089
:100CBC0000004242007000405F4A136A43F0010397
:100CCC001362E36833B3FFF797FE06465A4B1B6A71
:100CDC0013F0020F2FD1FFF78FFE801B41F28833E8
:100CEC009842F3D903209EE0052B09D0524B1A6A87
:100CFC0022F001021A621A6A22F004021A62E0E778
:100D0C004D4B1A6A42F004021A621A6A42F001024E
:100D1C001A62D6E7FFF770FE0646474B1B6A13F0C4
:100D2C00020F08D0FFF768FE801B41F2883398420F
:100D3C00F3D9032077E0E5B9E369002B72D03E4A82
:100D4C00526802F00C02082A56D0022B17D03B4BEB
:100D5C0000221A66FFF750FE0446374B1B6813F04F
:100D6C00007F47D0FFF748FE001B0228F5D903206F
:100D7C0059E0314AD36923F08053D361DCE72F4B20
:100D8C0000221A66FFF738FE05462B4B1B6813F042
:100D9C00007F06D0FFF730FE401B0228F5D9032058
:100DAC0041E0236AB3F5803F1AD023494B6823F402
:100DBC007413226A606A024313434B601F4B012277
:100DCC001A66FFF719FE04461B4B1B6813F0007FD5
:100DDC000ED1FFF711FE001B0228F5D9032022E0EB
:100DEC00154A536823F40033A1680B435360DCE7C6
:100DFC00002018E0002016E0012B16D00E4B5B688B
:100E0C0003F48031226A914211D103F47013626AA7
:100E1C0093420ED1002006E001207047012002E031
:100E2C00012000E0002002B070BD0120FBE7012092
:100E3C00F9E70120F7E700BF001002400000424232
:100E4C000F4B5B6803F00C02082A01D00D48704769
:100E5C00C3F383420C49885C13F4803F0BD0084BDE
:100E6C005B68C3F34043094AD35C064A02FB00F0BB
:100E7C00B0FBF3F07047064B03FB00F0704700BF6C
:100E8C000010024000127A00401800083C180008BC
:100E9C0000093D00002800F0A08070B50D46044606
:100EAC00524B1B6803F007038B420BD24F4A13685B
:100EBC0023F007030B431360136803F007038B4203
:100ECC0040F08D80236813F0020F17D013F0040F3D
:100EDC0004D0474A536843F4E0635360236813F02B
:100EEC00080F04D0424A536843F460535360404A9D
:100EFC00536823F0F003A1680B435360236813F08D
:100F0C00010F31D06368012B20D0022B25D0384A39
:100F1C00126812F0020F64D035494A6822F00302BD
:100F2C0013434B60FFF768FD0646314B5B6803F0DB
:100F3C000C036268B3EB820F16D0FFF75DFD801BCC
:100F4C0041F288339842F0D9032045E0284A1268D0
:100F5C0012F4003FE0D101203EE0254A126812F065
:100F6C00007FD9D1012037E0204B1B6803F0070329
:100F7C00AB420AD91D4A136823F007032B431360B5
:100F8C00136803F00703AB422DD1236813F0040F51
:100F9C0006D0174A536823F4E063E1680B435360AF
:100FAC00236813F0080F07D0114A536823F46053D9
:100FBC00216943EAC1035360FFF742FF0C4B5B68A6
:100FCC00C3F303130B4AD35CD8400B4B18600B4B89
:100FDC001868FFF7CDFC002070BD01207047012080
:100FEC00FAE70120F8E70120F6E700BF00200240F5
:100FFC0000100240501800080C00002008000020CF
:10100C0070B582B00024A446A1E07E4DAB4214D052
:10101C000CD8A5F58015AB420FD005F57025AB4269
:10102C000BD0A5F58015AB4210D106E0764DAB4246
:10103C0003D005F58035AB4208D18B68002B50D01E
:10104C00012B49D04261082400E0CC68BEF1FF0FAF
:10105C0049D806464FEA8C0233680F25954023EA9F
:10106C00050304FA02F2134333604B6813F0805FFC
:10107C006BD0664B9A6942F001029A619B6903F04E
:10108C0001030193019B4FEA9C02951C604B53F8A2
:10109C0025600CF00305AD000F23AB4026EA0306D8
:1010AC005C4B984226D003F58063984200F08C800C
:1010BC0003F58063984200F0898003F580639842C1
:1010CC0016D0042317E0CC680434BFE7CC6808348E
:1010DC00BCE7CC680C34B9E702610824B6E70024FD
:1010EC00B4E70424B2E7061DACF108029200B3E7A2
:1010FC00032300E00023AB4033430232444D45F858
:10110C0022304B6813F4801F62D0434A936843EA41
:10111C000E0393604B6813F4001F5FD03E4AD368F4
:10112C0043EA0E03D3604B6813F4003F5CD03A4A99
:10113C00536843EA0E0353604B6813F4803F59D055
:10114C00354A136843EA0E0313600CF1010C0B686B
:10115C0033FA0CF254D0012202FA0CF203EA020E1A
:10116C0032EA0303F1D14B68122B3FF64EAF122B30
:10117C003FF66CAF01A555F823F000BF47100008EF
:10118C0057100008D9100008EB100008591000087F
:10119C00591000085910000859100008591000087F
:1011AC00591000085910000859100008591000086F
:1011BC00591000085910000859100008591000085F
:1011CC00D3100008DF100008012394E7022392E7F4
:1011DC00114A936823EA0E0393609BE70E4AD36887
:1011EC0023EA0E03D3609EE70B4A536823EA0E03EF
:1011FC005360A1E7084A136823EA0E031360A4E7BF
:10120C0002B070BD0000221000003110001002402E
:10121C000000014000080140000401400AB10161D6
:10122C007047090401617047002808DB0901C9B245
:10123C0000F1604000F5614080F80013704700F049
:10124C000F000901C9B2014B1954704714ED00E0AD
:10125C0000B500F00700C0F1070CBCF1040F28BF6B
:10126C004FF0040C031D062B0FD9C31E4FF0FF3E8D
:10127C000EFA0CF021EA000199400EFA03FE22EA64
:10128C000E0241EA02005DF804FB0023EEE70000C9
:10129C00074AD36823F4E0631B041B0C000200F420
:1012AC00E060034343F0BF6343F40033D360704703
:1012BC0000ED00E010B50446054BD868C0F30220E1
:1012CC00FFF7C6FF01462046FFF7AEFF10BD00BF7B
:1012DC0000ED00E00138B0F1807F0BD24FF0E0233D
:1012EC005861054AF02182F82310002098610722EA
:1012FC001A6170470120704700ED00E0704710B58F
:10130C0082B00523ADF80430012000F0F5F802227C
:10131C00694601A800F0E0F80446002000F0ECF863
:10132C0024B99DF80040640004F00204204602B089
:10133C0010BD10B582B006238DF80730012000F0E7
:10134C00DBF801210DF1070000F0BAF8044600208B
:10135C0000F0D2F8204602B010BD10B584B0902336
:10136C0002930023ADF80C30FFF7C9FF044610B10F
:10137C00204604B010BD012000F0BEF806226946DC
:10138C0002A800F0A9F80446002000F0B5F8002CE3
:10139C00EED19DF80430EF2B05D19DF80530172BBD
:1013AC00E6D00124E4E70124E2E72DE9F04182B024
:1013BC00BAB305460E461746FFF7A1FF0446FFF7E2
:1013CC00B8FF044314F0FF042CD1381D00F0F6F8DC
:1013DC00804605F47F4343EA0543C5F307452B4399
:1013EC0001930346022203F8012BBDF804109DF86B
:1013FC000620A0F801109A703A463146043000F0ED
:10140C00CFF8012000F078F8391DC9B2404600F041
:10141C0057F80446002000F06FF8404600F0D6F86C
:10142C0000E00524204602B0BDE8F0812DE9F04330
:10143C0083B0002A3ED006460F469046FFF75FFF6A
:10144C000446C0BB08F10404204600F0B7F805467A
:10145C00204600F0B3F881462946032301F8013BEE
:10146C0006F47F4343EA0642C6F307431343019352
:10147C00BDF804209DF80630A5F801208B700120E2
:10148C0000F03AF8E2B24946284600F025F8044646
:10149C00002000F031F834B1284600F097F84846A7
:1014AC0000F094F807E0424609F10401384600F0D8
:1014BC0077F8F1E70524204603B0BDE8F08300007F
:1014CC0008B50A461023014602480068FFF751F898
:1014DC0008BD00BF0000002000B583B013461022E9
:1014EC0000920A46014603480068FFF71EF903B054
:1014FC005DF804FB0000002008B580F0010201211A
:10150C000148FFF78BFE08BD000C0140FFF7F6FE0B
:10151C000B480C490C4A002302E0D458C450043345
:10152C00C4188C42F9D3094A094C002301E013601A
:10153C000432A242FBD300F00FF8FEF7A3FE704773
:10154C0000000020600000206818000860000020E7
:10155C0024020020FEE7000070B500260C4D0D4C57
:10156C00641BA410A64209D100F056F900260A4DBE
:10157C000A4C641BA410A64205D170BD55F8043B5F
:10158C0098470136EEE755F8043B98470136F2E7E9
:10159C00601800086018000860180008641800083B
:1015AC000A44914200F1FF3300D1704710B511F895
:1015BC00014B914203F8014FF9D110BD024B01468A
:1015CC00186800F02DB800BF10000020024B014637
:1015DC00186800F0C9B800BF1000002070B50F4E9D
:1015EC000C463168054611B900F0A6F8306021466A
:1015FC00284600F0A1F8431C03D14FF0FF342046DD
:10160C0070BDC41C24F00304A042F8D0211A284653
:10161C0000F092F80130F2D1EFE700BFD8000020C3
:10162C002DE9F843CD1C25F0030508350C2D38BFEA
:10163C000C25002D064601DBA94204D90C2333608E
:10164C000020BDE8F883DFF8D48000F069F8D8F802
:10165C0000301C4644BB29463046FFF7BFFF431CF5
:10166C00044658D1D8F800402746002F43D1002C0F
:10167C004BD023683946304604EB030900F05CF884
:10168C00814542D1216830466D1A2946FFF7A6FFE5
:10169C0001303AD023682B442360D8F800305A68C4
:1016AC0062BBC8F800700FE02268521B20D40B2AD2
:1016BC0017D96119A342256018BF5960636808BF28
:1016CC00C8F8001062514B60304600F02FF804F15E
:1016DC000B00231D20F00700C21A1CBF1B1AA350BD
:1016EC00AFE76268A3420CBFC8F800205A60EBE772
:1016FC0023466468AEE73C467F68B6E71A465B68EB
:10170C00A342FBD100235360DEE70C233046336049
:10171C0000F00CF894E70560D6E700BFDC00002071
:10172C00014800F069B800BF18020020014800F021
:10173C0064B800BF1802002038B50023054D0446DC
:10174C0008462B6000F05AF8431C02D12B6803B1F9
:10175C00236038BD1C02002003460244934200D192
:10176C00704703F8011BF9E738B50546002940D04E
:10177C0051F8043C0C1F002BB8BFE418FFF7D0FF46
:10178C001C4A136833B9636014602846BDE83840BE
:10179C00FFF7CCBFA34208D9206821188B4201BFA8
:1017AC0019685B6809182160EDE71A465B680BB194
:1017BC00A342FAD911685018A0420BD120680144F9
:1017CC00501883421160E0D118685B6808441060BF
:1017DC005360DAE702D90C232B60D6E72068211876
:1017EC008B4201BF19685B68091821606360546003
:1017FC00CBE738BDDC00002070477047044A054930
:10180C001368002B08BF0B4618441060184670472D
:10181C002002002028020020F8B500BFF8BC08BC4C
:10182C009E467047F8B500BFF8BC08BC9E46704792
:10183C000102000002030405060708090A0B0C0D3F
:10184C000E0F101000000000000000000102030445
:04185C00060708096A
:041860007501000806
:041864004D0100082A
:101868007C00002001000000100000000024F400AB
:101878001400002000000000E000002048010020C3
:10188800B00100200000000000000000000000007F
:101898000000000000000000000000000000000040
:1018A8000000000000000000000000000000000030
:1018B8000000000000000000000000000000000020
:0400000508001519C1
:00000001FF
